{
  "contractName": "Decentragram",
  "abi": [
    {
      "anonymous": false,
      "inputs": [
        {
          "indexed": false,
          "internalType": "uint256",
          "name": "id",
          "type": "uint256"
        },
        {
          "indexed": false,
          "internalType": "string",
          "name": "hash",
          "type": "string"
        },
        {
          "indexed": false,
          "internalType": "string",
          "name": "description",
          "type": "string"
        },
        {
          "indexed": false,
          "internalType": "uint256",
          "name": "tipAmount",
          "type": "uint256"
        },
        {
          "indexed": false,
          "internalType": "address",
          "name": "author",
          "type": "address"
        },
        {
          "indexed": false,
          "internalType": "uint256",
          "name": "tipTotal",
          "type": "uint256"
        }
      ],
      "name": "ImageCreated",
      "type": "event"
    },
    {
      "anonymous": false,
      "inputs": [
        {
          "indexed": false,
          "internalType": "uint256",
          "name": "id",
          "type": "uint256"
        },
        {
          "indexed": false,
          "internalType": "string",
          "name": "hash",
          "type": "string"
        },
        {
          "indexed": false,
          "internalType": "string",
          "name": "description",
          "type": "string"
        },
        {
          "indexed": false,
          "internalType": "uint256",
          "name": "tipAmount",
          "type": "uint256"
        },
        {
          "indexed": false,
          "internalType": "address",
          "name": "author",
          "type": "address"
        },
        {
          "indexed": false,
          "internalType": "uint256",
          "name": "tipTotal",
          "type": "uint256"
        }
      ],
      "name": "imageTipped",
      "type": "event"
    },
    {
      "inputs": [],
      "name": "imageCount",
      "outputs": [
        {
          "internalType": "uint256",
          "name": "",
          "type": "uint256"
        }
      ],
      "stateMutability": "view",
      "type": "function",
      "constant": true
    },
    {
      "inputs": [
        {
          "internalType": "uint256",
          "name": "",
          "type": "uint256"
        }
      ],
      "name": "images",
      "outputs": [
        {
          "internalType": "uint256",
          "name": "id",
          "type": "uint256"
        },
        {
          "internalType": "string",
          "name": "hash",
          "type": "string"
        },
        {
          "internalType": "string",
          "name": "description",
          "type": "string"
        },
        {
          "internalType": "uint256",
          "name": "tipAmount",
          "type": "uint256"
        },
        {
          "internalType": "address",
          "name": "author",
          "type": "address"
        },
        {
          "internalType": "uint256",
          "name": "tipTotal",
          "type": "uint256"
        }
      ],
      "stateMutability": "view",
      "type": "function",
      "constant": true
    },
    {
      "inputs": [],
      "name": "name",
      "outputs": [
        {
          "internalType": "string",
          "name": "",
          "type": "string"
        }
      ],
      "stateMutability": "view",
      "type": "function",
      "constant": true
    },
    {
      "inputs": [
        {
          "internalType": "string",
          "name": "_imgHash",
          "type": "string"
        },
        {
          "internalType": "string",
          "name": "_description",
          "type": "string"
        }
      ],
      "name": "uploadImage",
      "outputs": [],
      "stateMutability": "nonpayable",
      "type": "function"
    },
    {
      "inputs": [
        {
          "internalType": "uint256",
          "name": "_id",
          "type": "uint256"
        }
      ],
      "name": "tipImageOwner",
      "outputs": [],
      "stateMutability": "payable",
      "type": "function",
      "payable": true
    }
  ],
  "bytecode": "0x60806040526040518060400160405280600c81526020017f446563656e7472616772616d000000000000000000000000000000000000000081525060009080519060200190620000519291906200006b565b5060006001553480156200006457600080fd5b5062000180565b82805462000079906200014a565b90600052602060002090601f0160209004810192826200009d5760008555620000e9565b82601f10620000b857805160ff1916838001178555620000e9565b82800160010185558215620000e9579182015b82811115620000e8578251825591602001919060010190620000cb565b5b509050620000f89190620000fc565b5090565b5b8082111562000117576000816000905550600101620000fd565b5090565b7f4e487b7100000000000000000000000000000000000000000000000000000000600052602260045260246000fd5b600060028204905060018216806200016357607f821691505b602082108114156200017a57620001796200011b565b5b50919050565b610eb680620001906000396000f3fe60806040526004361061004a5760003560e01c806306fdde031461004f578063848564821461007a5780638567ade8146100bc57806392053b63146100d8578063a91b831414610103575b600080fd5b34801561005b57600080fd5b5061006461012c565b604051610071919061097d565b60405180910390f35b34801561008657600080fd5b506100a1600480360381019061009c91906109e9565b6101ba565b6040516100b396959493929190610a66565b60405180910390f35b6100d660048036038101906100d191906109e9565b610326565b005b3480156100e457600080fd5b506100ed610686565b6040516100fa9190610ad5565b60405180910390f35b34801561010f57600080fd5b5061012a60048036038101906101259190610c25565b61068c565b005b6000805461013990610ccc565b80601f016020809104026020016040519081016040528092919081815260200182805461016590610ccc565b80156101b25780601f10610187576101008083540402835291602001916101b2565b820191906000526020600020905b81548152906001019060200180831161019557829003601f168201915b505050505081565b60026020528060005260406000206000915090508060000154908060010180546101e390610ccc565b80601f016020809104026020016040519081016040528092919081815260200182805461020f90610ccc565b801561025c5780601f106102315761010080835404028352916020019161025c565b820191906000526020600020905b81548152906001019060200180831161023f57829003601f168201915b50505050509080600201805461027190610ccc565b80601f016020809104026020016040519081016040528092919081815260200182805461029d90610ccc565b80156102ea5780601f106102bf576101008083540402835291602001916102ea565b820191906000526020600020905b8154815290600101906020018083116102cd57829003601f168201915b5050505050908060030154908060040160009054906101000a900473ffffffffffffffffffffffffffffffffffffffff16908060050154905086565b60008111801561033857506001548111155b61034157600080fd5b6000600260008381526020019081526020016000206040518060c00160405290816000820154815260200160018201805461037b90610ccc565b80601f01602080910402602001604051908101604052809291908181526020018280546103a790610ccc565b80156103f45780601f106103c9576101008083540402835291602001916103f4565b820191906000526020600020905b8154815290600101906020018083116103d757829003601f168201915b5050505050815260200160028201805461040d90610ccc565b80601f016020809104026020016040519081016040528092919081815260200182805461043990610ccc565b80156104865780601f1061045b57610100808354040283529160200191610486565b820191906000526020600020905b81548152906001019060200180831161046957829003601f168201915b50505050508152602001600382015481526020016004820160009054906101000a900473ffffffffffffffffffffffffffffffffffffffff1673ffffffffffffffffffffffffffffffffffffffff1673ffffffffffffffffffffffffffffffffffffffff16815260200160058201548152505090506000816080015190508073ffffffffffffffffffffffffffffffffffffffff166108fc349081150290604051600060405180830381858888f1935050505015801561054a573d6000803e3d6000fd5b5034826060015161055b9190610d2d565b8260600181815250508160a001805180919061057690610d83565b8152505081600260008581526020019081526020016000206000820151816000015560208201518160010190805190602001906105b4929190610841565b5060408201518160020190805190602001906105d1929190610841565b506060820151816003015560808201518160040160006101000a81548173ffffffffffffffffffffffffffffffffffffffff021916908373ffffffffffffffffffffffffffffffffffffffff16021790555060a082015181600501559050507fc07edb0eba212f2eb3d641360e0521f4d688af12a7a714586344f4c4e4070e4e83836020015184604001518560600151858760a0015160405161067996959493929190610a66565b60405180910390a1505050565b60015481565b600081511161069a57600080fd5b60008251116106a857600080fd5b600073ffffffffffffffffffffffffffffffffffffffff163373ffffffffffffffffffffffffffffffffffffffff1614156106e257600080fd5b600160008154809291906106f590610d83565b91905055506040518060c001604052806001548152602001838152602001828152602001600081526020013373ffffffffffffffffffffffffffffffffffffffff168152602001600081525060026000600154815260200190815260200160002060008201518160000155602082015181600101908051906020019061077c929190610841565b506040820151816002019080519060200190610799929190610841565b506060820151816003015560808201518160040160006101000a81548173ffffffffffffffffffffffffffffffffffffffff021916908373ffffffffffffffffffffffffffffffffffffffff16021790555060a082015181600501559050507f873045aae8db3cf5d94f08acfe8a25d88ddfd376f658916fc5cb4b348be5e7f96001548383600033600060405161083596959493929190610e11565b60405180910390a15050565b82805461084d90610ccc565b90600052602060002090601f01602090048101928261086f57600085556108b6565b82601f1061088857805160ff19168380011785556108b6565b828001600101855582156108b6579182015b828111156108b557825182559160200191906001019061089a565b5b5090506108c391906108c7565b5090565b5b808211156108e05760008160009055506001016108c8565b5090565b600081519050919050565b600082825260208201905092915050565b60005b8381101561091e578082015181840152602081019050610903565b8381111561092d576000848401525b50505050565b6000601f19601f8301169050919050565b600061094f826108e4565b61095981856108ef565b9350610969818560208601610900565b61097281610933565b840191505092915050565b600060208201905081810360008301526109978184610944565b905092915050565b6000604051905090565b600080fd5b600080fd5b6000819050919050565b6109c6816109b3565b81146109d157600080fd5b50565b6000813590506109e3816109bd565b92915050565b6000602082840312156109ff576109fe6109a9565b5b6000610a0d848285016109d4565b91505092915050565b610a1f816109b3565b82525050565b600073ffffffffffffffffffffffffffffffffffffffff82169050919050565b6000610a5082610a25565b9050919050565b610a6081610a45565b82525050565b600060c082019050610a7b6000830189610a16565b8181036020830152610a8d8188610944565b90508181036040830152610aa18187610944565b9050610ab06060830186610a16565b610abd6080830185610a57565b610aca60a0830184610a16565b979650505050505050565b6000602082019050610aea6000830184610a16565b92915050565b600080fd5b600080fd5b7f4e487b7100000000000000000000000000000000000000000000000000000000600052604160045260246000fd5b610b3282610933565b810181811067ffffffffffffffff82111715610b5157610b50610afa565b5b80604052505050565b6000610b6461099f565b9050610b708282610b29565b919050565b600067ffffffffffffffff821115610b9057610b8f610afa565b5b610b9982610933565b9050602081019050919050565b82818337600083830152505050565b6000610bc8610bc384610b75565b610b5a565b905082815260208101848484011115610be457610be3610af5565b5b610bef848285610ba6565b509392505050565b600082601f830112610c0c57610c0b610af0565b5b8135610c1c848260208601610bb5565b91505092915050565b60008060408385031215610c3c57610c3b6109a9565b5b600083013567ffffffffffffffff811115610c5a57610c596109ae565b5b610c6685828601610bf7565b925050602083013567ffffffffffffffff811115610c8757610c866109ae565b5b610c9385828601610bf7565b9150509250929050565b7f4e487b7100000000000000000000000000000000000000000000000000000000600052602260045260246000fd5b60006002820490506001821680610ce457607f821691505b60208210811415610cf857610cf7610c9d565b5b50919050565b7f4e487b7100000000000000000000000000000000000000000000000000000000600052601160045260246000fd5b6000610d38826109b3565b9150610d43836109b3565b9250827fffffffffffffffffffffffffffffffffffffffffffffffffffffffffffffffff03821115610d7857610d77610cfe565b5b828201905092915050565b6000610d8e826109b3565b91507fffffffffffffffffffffffffffffffffffffffffffffffffffffffffffffffff821415610dc157610dc0610cfe565b5b600182019050919050565b6000819050919050565b6000819050919050565b6000610dfb610df6610df184610dcc565b610dd6565b6109b3565b9050919050565b610e0b81610de0565b82525050565b600060c082019050610e266000830189610a16565b8181036020830152610e388188610944565b90508181036040830152610e4c8187610944565b9050610e5b6060830186610e02565b610e686080830185610a57565b610e7560a0830184610e02565b97965050505050505056fea2646970667358221220c36071b182cae9441c885be904b7b5654a630d7660c6106c5563b7a76517d8d164736f6c634300080c0033",
  "immutableReferences": {},
  "source": "// SPDX-License-Identifier: MIT\r\n\r\npragma solidity ^0.8.0;\r\n\r\ncontract Decentragram {\r\n  string public name = 'Decentragram';\r\n\r\n  // Store images\r\n  uint public imageCount = 0;\r\n  mapping(uint => Image) public images;\r\n\r\n  struct Image {\r\n    uint id;\r\n    string hash;\r\n    string description;\r\n    uint tipAmount;\r\n    address author;\r\n    uint tipTotal;\r\n  }\r\n\r\n  event ImageCreated(\r\n    uint id,\r\n    string hash,\r\n    string description,\r\n    uint tipAmount,\r\n    address author,\r\n    uint tipTotal\r\n    );\r\n\r\n  event imageTipped(\r\n    uint id,\r\n    string hash,\r\n    string description,\r\n    uint tipAmount,\r\n    address author,\r\n    uint tipTotal\r\n    );\r\n\r\n\r\n  // Create images\r\n  function uploadImage(string memory _imgHash, string memory _description) public {\r\n    // Require description not empty\r\n    require(bytes(_description).length > 0);\r\n\r\n    // Require image hash not empty\r\n    require(bytes(_imgHash).length > 0);\r\n\r\n    // Require msg.sender address exists\r\n    require(msg.sender!=address(0));\r\n\r\n    // Increment image Id\r\n    imageCount++;\r\n\r\n    // Add image to contract\r\n    images[imageCount] = Image(imageCount, _imgHash, _description, 0, msg.sender, 0);\r\n\r\n    // Trigger an event\r\n    emit ImageCreated(imageCount, _imgHash, _description, 0, msg.sender, 0);\r\n\r\n  } \r\n\r\n  // Tip images\r\n  function tipImageOwner(uint _id) public payable {\r\n    // Make sure the id is valid\r\n    require(_id > 0 && _id <= imageCount);\r\n\r\n    // Fetch the image\r\n    Image memory _image = images[_id];\r\n\r\n    //Fetch the author and make payable\r\n    address _author = _image.author;\r\n\r\n    // Pay the author\r\n    payable(_author).transfer(msg.value);\r\n\r\n    // Update tip amount\r\n    _image.tipAmount = _image.tipAmount + msg.value;\r\n\r\n    // Update the tip total\r\n    _image.tipTotal++;\r\n\r\n    // Update the image\r\n    images[_id] = _image;\r\n\r\n    // Emit the event\r\n    emit imageTipped(_id, _image.hash, _image.description, _image.tipAmount, _author, _image.tipTotal);\r\n  }\r\n}",
  "sourcePath": "C:\\Users\\James\\insta_clone_final\\src\\contracts\\Decentragram.sol",
  "compiler": {
    "name": "solc",
    "version": "0.8.12+commit.f00d7308.Emscripten.clang"
  },
  "schemaVersion": "3.4.4",
  "updatedAt": "2022-03-03T08:56:33.793Z",
  "networkType": "ethereum",
  "devdoc": {
    "kind": "dev",
    "methods": {},
    "version": 1
  },
  "userdoc": {
    "kind": "user",
    "methods": {},
    "version": 1
  }
}